:100000000C942A000C9447000C9447000C94470071
:100010000C9447000C9447000C9447000C94470044
:100020000C9447000C9447000C9447000C94470034
:100030000C9447000C9447000C9447000C94470024
:100040000C9447000C9447000C9447000C94470014
:100050000C94470011241FBECFE5D8E0DEBFCDBF12
:1000600010E0A0E6B0E0ECE2FEE002C005900D92E8
:10007000AE38B107D9F720E0AEE8B0E001C01D927C
:10008000A639B207E1F70E94A4000C9414070C945F
:100090000000A89AA998AA9A82BBAA988FED91E02D
:1000A0000197F1F700C000000895CF93DF9300D0CF
:1000B00000D0CDB7DEB719821A821B821C82092EAE
:1000C000000CAA0BBB0B49815A816B817C814817BC
:1000D00059076A077B0798F4EFE9FFE03197F1F7DA
:1000E00000C0000049815A816B817C814F5F5F4F66
:1000F0006F4F7F4F49835A836B837C83E4CF0F908C
:100100000F900F900F90DF91CF910895CF93DF93D1
:10011000EC01A898A998AA9A81E090E00E94550065
:100120002196C295CC0FCC0FC07CC2BB81E090E081
:100130000E945500AA988FED91E00197F1F700C059
:100140000000DF91CF910895CF93DF93CDB7DEB755
:1001500060970FB6F894DEBF0FBECDBF8FEF81BBA7
:1001600012BA84BB85BB17BA88BB2FEF89E698E12A
:10017000215080409040E1F700C00000A898A99865
:10018000AA9A88E382BBAA98EFEDF1E03197F1F7E4
:1001900000C00000AA9A8EE082BBAA988FED91E081
:1001A0000197F1F700C00000AA9A86E082BBAA98E6
:1001B000EFEDF1E03197F1F700C00000A898A998A1
:1001C000AA9A81E082BBAA9888E790E00E94550035
:1001D00080E487B980EE86B94AE0E42EF12C8E01E6
:1001E0000F5F1F4F4E01F1E18F0E911C59E7652EF5
:1001F00050E0752E369A3699FECF64B175B180E025
:1002000090E00E942F0320E030EC4FE754E40E947E
:10021000870220E030E048EC52E40E94BD031B015D
:100220002C010E94F9027093950060939400C09095
:100230006200D0906300C61AD70AD0929300C09291
:100240009200072E000C880B990B0E9431039B0132
:10025000AC01C201B1010E941A0220E030E040E28C
:1002600051E40E94BD030E94F902709391006093D3
:100270009000C701861B970BB7010E94F201909373
:100280008F0080938E008091600090916100880FB4
:10029000991F8C159D0514F427EF25BB2091920022
:1002A0003091930080916000909161002817390788
:1002B00044F49195819591098217930714F488EF7E
:1002C00085BB809160009091610091958195910925
:1002D000880F991F209192003091930028173907B9
:1002E00014F49FEE95BBB39906C0E2E3F0E0F093FF
:1002F0006300E0936200B29906C088E290E09093B8
:10030000630080936200B19906C0E8E0F0E0F093EA
:100310006100E0936000B09904C0F0926100E09247
:10032000600081E090E00E948600809191008F93B0
:10033000809190008F93809195008F93809194008D
:100340008F93809163008F93809162008F9384E6F6
:1003500090E09F938F931F930F930E942A0468014C
:100360000FB6F894DEBF0FBECDBF5801F5018191E5
:100370005F01082E000C990B0E944900A814B904D3
:10038000A9F782E090E00E94860080918F008F9311
:1003900080918E008F93809193008F938091920033
:1003A0008F93809161008F93809160008F937F92F3
:1003B0006F921F930F930E942A040FB6F894DEBF2A
:1003C0000FBECDBFF60181916F01082E000C990B75
:1003D0000E944900C814D904A9F784EF91E00E9453
:1003E000550008CF97FB072E16F4009407D077FD31
:1003F00009D00E94060207FC05D03EF49095819535
:100400009F4F0895709561957F4F0895AA1BBB1B60
:1004100051E107C0AA1FBB1FA617B70710F0A61B04
:10042000B70B881F991F5A95A9F780959095BC0125
:10043000CD0108955058BB27AA270E9432020C9480
:1004400083030E94750338F00E947C0320F039F486
:100450009F3F19F426F40C9472030EF4E095E7FB29
:100460000C946C03E92F0E94940358F3BA176207A7
:1004700073078407950720F079F4A6F50C94B6036A
:100480000EF4E0950B2EBA2FA02D0B01B9019001AF
:100490000C01CA01A0011124FF27591B99F0593FF3
:1004A00050F4503E68F11A16F040A22F232F342F3B
:1004B0004427585FF3CF469537952795A795F04089
:1004C0005395C9F77EF41F16BA0B620B730B840B9E
:1004D000BAF09150A1F0FF0FBB1F661F771F881F56
:1004E000C2F70EC0BA0F621F731F841F48F48795AE
:1004F00077956795B795F7959E3F08F0B0CF9395A0
:10050000880F08F09927EE0F9795879508950E9418
:100510009B020C9483030E947C0358F00E94750395
:1005200040F029F45F3F29F00C946C0351110C94B6
:10053000B7030C9472030E94940368F39923B1F3F8
:10054000552391F3951B550BBB27AA2762177307F9
:10055000840738F09F5F5F4F220F331F441FAA1F8D
:10056000A9F335D00E2E3AF0E0E832D09150504049
:10057000E695001CCAF72BD0FE2F29D0660F771FF7
:10058000881FBB1F261737074807AB07B0E809F0DD
:10059000BB0B802DBF01FF2793585F4F3AF09E3F62
:1005A000510578F00C946C030C94B7035F3FE4F3AF
:1005B000983ED4F3869577956795B795F7959F5FA5
:1005C000C9F7880F911D9695879597F90895E1E0F1
:1005D000660F771F881FBB1F621773078407BA0750
:1005E00020F0621B730B840BBA0BEE1F88F7E095AB
:1005F00008950E9400036894B1110C94B703089504
:100600000E949C0388F09F5798F0B92F9927B75103
:10061000B0F0E1F0660F771F881F991F1AF0BA95A6
:10062000C9F714C0B13091F00E94B603B1E008954B
:100630000C94B603672F782F8827B85F39F0B93F3D
:10064000CCF3869577956795B395D9F73EF4909559
:100650008095709561957F4F8F4F9F4F0895E894D7
:1006600009C097FB3EF490958095709561957F4FFA
:100670008F4F9F4F9923A9F0F92F96E9BB279395A8
:10068000F695879577956795B795F111F8CFFAF4B8
:10069000BB0F11F460FF1BC06F5F7F4F8F4F9F4FE9
:1006A00016C0882311F096E911C0772321F09EE847
:1006B000872F762F05C0662371F096E8862F70E0AD
:1006C00060E02AF09A95660F771F881FDAF7880F87
:1006D0009695879597F9089597F99F6780E870E058
:1006E00060E008959FEF80EC089500240A941616A8
:1006F000170618060906089500240A941216130610
:10070000140605060895092E0394000C11F488239D
:1007100052F0BB0F40F4BF2B11F460FF04C06F5FB9
:100720007F4F8F4F9F4F089557FD9058440F551F8F
:1007300059F05F3F71F04795880F97FB991F61F063
:100740009F3F79F087950895121613061406551FDA
:10075000F2CF4695F1DF08C0161617061806991F46
:10076000F1CF86957105610508940895E894BB273B
:1007700066277727CB0197F908950E94D0030C9440
:1007800083030E94750338F00E947C0320F09523B8
:1007900011F00C946C030C94720311240C94B703A5
:1007A0000E94940370F3959FC1F3950F50E0551F7D
:1007B000629FF001729FBB27F00DB11D639FAA27B6
:1007C000F00DB11DAA1F649F6627B00DA11D661F05
:1007D000829F2227B00DA11D621F739FB00DA11D26
:1007E000621F839FA00D611D221F749F3327A00DE0
:1007F000611D231F849F600D211D822F762F6A2F7C
:1008000011249F5750409AF0F1F088234AF0EE0FE0
:10081000FF1FBB1F661F771F881F91505040A9F70D
:100820009E3F510580F00C946C030C94B7035F3F1E
:10083000E4F3983ED4F3869577956795B795F79549
:10084000E7959F5FC1F7FE2B880F911D96958795C1
:1008500097F90895AEE0B0E0E0E3F4E00C94EB0625
:100860000D891E8986E08C831A8309838FEF9FE7A9
:100870009E838D83AE01475E5F4F6F89788DCE0179
:1008800001960E944C04EF81F885E00FF11F108261
:100890002E96E4E00C940707ABE0B0E0E2E5F4E06C
:1008A0000C94DD066C017B018A01FC011782168223
:1008B000838181FFCCC1CE0101963C01F601938179
:1008C000F70193FD859193FF81917F01882309F4BE
:1008D000BAC1853239F493FD859193FF81917F01EF
:1008E000853229F4B60190E00E944306E7CF912CAF
:1008F000212C312CFFE1F315D8F08B3279F038F44C
:10090000803279F08332A1F4232D20611DC08D3215
:1009100061F0803369F4232D216016C0832D82603D
:10092000382EE32DE4603E2E2AC0F32DF8601DC062
:1009300037FC2DC020ED280F2A3040F08E32B9F45C
:1009400036FC81C1232D2064322E19C036FE06C02C
:100950008AE0989E200D1124922E11C0EAE02E9E6E
:10096000200D1124222EF32DF0623F2E08C08C366C
:1009700021F4832D8068382E02C0883641F4F701B7
:1009800093FD859193FF81917F018111B3CF982FC2
:100990009F7D9554933028F40C5F1F4F9FE39983FC
:1009A0000DC0833631F0833771F0833509F059C0BB
:1009B00021C0F801808189830E5F1F4F88248394B2
:1009C000912C530113C02801F2E04F0E511CF80185
:1009D000A080B18036FE03C0692D70E002C06FEFC9
:1009E0007FEFC5010E9438064C018201F32DFF778D
:1009F0003F2E16C0280122E0420E511CF801A080B3
:100A0000B18036FE03C0692D70E002C06FEF7FEF4A
:100A1000C5010E942D064C01F32DF0683F2E820186
:100A200033FC1BC0822D90E088169906B0F4B60105
:100A300080E290E00E9443062A94F4CFF50137FC4F
:100A4000859137FE81915F01B60190E00E944306D7
:100A500021102A9421E0821A91088114910471F7DF
:100A6000E8C0843611F0893641F5F80137FE07C039
:100A700060817181828193810C5F1F4F08C060810A
:100A80007181072E000C880B990B0E5F1F4FF32D01
:100A9000FF763F2E97FF09C09095809570956195E0
:100AA0007F4F8F4F9F4FF0683F2E2AE030E0A30129
:100AB0000E947F06882E861845C0853731F4232D85
:100AC0002F7EB22E2AE030E025C0932D997FB92EDB
:100AD0008F36C1F018F4883579F0B5C0803719F039
:100AE000883721F0B0C0E92FE061BE2EB4FE0DC002
:100AF000FB2DF460BF2E09C034FE0AC0292F2660EA
:100B0000B22E06C028E030E005C020E130E002C08F
:100B100020E132E0F801B7FE07C060817181828177
:100B200093810C5F1F4F06C06081718180E090E06F
:100B30000E5F1F4FA3010E947F06882E8618FB2D93
:100B4000FF773F2E36FE0DC0232D2E7FA22E891457
:100B500058F434FE0BC032FC09C0832D8E7EA82EC3
:100B600005C0B82CA32C03C0B82C01C0B92CA4FE1E
:100B70000FC0FE01E80DF11D8081803321F49A2D14
:100B8000997EA92E09C0A2FE06C0B394B39404C0F6
:100B90008A2D867809F0B394A3FC11C0A0FE06C08C
:100BA000B21488F4280C922C9B180EC0B21460F476
:100BB000B60180E290E00E944306B394F7CFB214EE
:100BC00018F42B1802C0982C212CA4FE10C0B601DA
:100BD00080E390E00E944306A2FE17C0A1FC03C080
:100BE00088E790E002C088E590E0B6010CC08A2D4D
:100BF000867859F0A1FE02C08BE201C080E2A7FC1A
:100C00008DE2B60190E00E944306891438F4B601E3
:100C100080E390E00E9443069A94F7CF8A94F30110
:100C2000E80DF11D8081B60190E00E94430681101D
:100C3000F5CF222009F442CEB60180E290E00E9476
:100C400043062A94F6CFF6018681978102C08FEF82
:100C50009FEF2B96E2E10C94F906FC0105906150A0
:100C600070400110D8F7809590958E0F9F1F0895C2
:100C7000FC016150704001900110D8F7809590956B
:100C80008E0F9F1F08950F931F93CF93DF93FB0148
:100C9000238121FD03C08FEF9FEF2CC022FF16C0E0
:100CA00046815781248135814217530744F4A0813E
:100CB000B1819D012F5F3F4F318320838C9326812B
:100CC00037812F5F3F4F3783268314C08B01EC01A0
:100CD000FB010084F185E02D0995892BE1F6D8010F
:100CE00016968D919C911797019617969C938E93CB
:100CF0001697CE01DF91CF911F910F910895FA01C0
:100D0000AA27283051F1203181F1E8946F936E7F4A
:100D10006E5F7F4F8F4F9F4FAF4FB1E03ED0B4E03B
:100D20003CD0670F781F891F9A1FA11D680F791F7C
:100D30008A1F911DA11D6A0F711D811D911DA11D8D
:100D400020D009F468943F912AE0269F112430199D
:100D5000305D3193DEF6CF010895462F4770405D38
:100D60004193B3E00FD0C9F7F6CF462F4F70405DE7
:100D70004A3318F0495D31FD4052419302D0A9F742
:100D8000EACFB4E0A6959795879577956795BA953C
:100D9000C9F700976105710508959B01AC010A2E02
:100DA00006945795479537952795BA95C9F7620FD9
:100DB000731F841F951FA01D08952F923F924F927D
:100DC0005F926F927F928F929F92AF92BF92CF92DB
:100DD000DF92EF92FF920F931F93CF93DF93CDB7E4
:100DE000DEB7CA1BDB0B0FB6F894DEBF0FBECDBF5C
:100DF00009942A88398848885F846E847D848C842D
:100E00009B84AA84B984C884DF80EE80FD800C8135
:100E10001B81AA81B981CE0FD11D0FB6F894DEBF18
:0C0E20000FBECDBFED010895F894FFCF88
:100E2C000400320053503D253264252550563D2593
:100E3C0033642E25316425250048203D2532642558
:0E0E4C002545203D2533642E253164252500E3
:00000001FF
